:020000040800F2
:1000000000800120313700089D3600089F36000827
:10001000A1360008A3360008A5360008000000003D
:10002000000000000000000000000000A7360008EB
:10003000A936000800000000AB360008AD36000805
:1000400081370008813700088137000881370008B0
:1000500081370008813700088137000881370008A0
:100060008137000881370008813700088137000890
:100070008137000881370008813700088137000880
:100080008137000881370008813700080000000030
:1000900000000000000000000000000081370008A0
:1000A0008137000881370008813700088137000850
:1000B0008137000881370008813700088137000840
:1000C0008137000881370008813700088137000830
:1000D00081370008813700088137000800000000E0
:1000E00081370008813700088137000800000000D0
:1000F0000000000000000000000000008137000840
:1001000000000000813700088137000881370008AF
:1001100000000000000000000000000000000000DF
:1001200081370008813700088137000881370008CF
:1001300081370008000000000000000000000000FF
:1001400000000000000000000000000081370008EF
:10015000813700088137000881370008813700089F
:10016000813700088137000800000000000000000F
:10017000000000000000000000000000000000007F
:1001800000000000813700080000000000000000AF
:0401900081370008AB
:1001A00010B5054C237833B9044B13B10448AFF3B1
:1001B00000800123237010BD7800002000000000A3
:1001C0002440000808B5034B1BB103490348AFF3B3
:1001D000008008BD000000007C00002024400008D2
:1001E00001F0FF01102A2BDB10F0070F08D010F8E8
:1001F000013B013A8B422DD010F0070F42B3F6D1EC
:10020000F0B441EA012141EA014122F007047FF004
:1002100000070023F0E80256083C85EA010586EA5B
:10022000010685FA47F5A3FA87F586FA47F6A5FA97
:1002300087F68EB9EED1F0BC01F0FF0102F00702A3
:1002400032B110F8013B013A83EA010313B1F8D14E
:100250000020704701387047002D06BF354603382F
:10026000073815F0010F07D1013015F4807F02BF68
:10027000013015F4C03F0130F0BC0138704700BFB9
:1002800081F0004102E000BF83F0004330B54FEA47
:1002900041044FEA430594EA050F08BF90EA020FB4
:1002A0001FBF54EA000C55EA020C7FEA645C7FEA47
:1002B000655C00F0E2804FEA5454D4EB5555B8BF6A
:1002C0006D420CDD2C4480EA020281EA030382EADB
:1002D000000083EA010180EA020281EA0303362D6D
:1002E00088BF30BD11F0004F4FEA01314FF4801C40
:1002F0004CEA113102D0404261EB410113F0004F52
:100300004FEA03334CEA133302D0524263EB430308
:1003100094EA050F00F0A780A4F10104D5F1200EA6
:100320000DDB02FA0EFC22FA05F2801841F1000101
:1003300003FA0EF2801843FA05F359410EE0A5F1D5
:1003400020050EF1200E012A03FA0EFC28BF4CF006
:10035000020C43FA05F3C01851EBE37101F00045BC
:1003600007D54FF0000EDCF1000C7EEB00006EEBC9
:100370000101B1F5801F1BD3B1F5001F0CD3490853
:100380005FEA30004FEA3C0C04F101044FEA4452AA
:1003900012F5800F80F09A80BCF1004F08BF5FEA31
:1003A000500C50F1000041EB045141EA050130BD11
:1003B0005FEA4C0C404141EB010111F4801FA4F1B4
:1003C0000104E9D191F0000F04BF01460020B1FA09
:1003D00081F308BF2033A3F10B03B3F120020CDA41
:1003E0000C3208DD02F1140CC2F10C0201FA0CF01F
:1003F00021FA02F10CE002F11402D8BFC2F1200C84
:1004000001FA02F120FA0CFCDCBF41EA0C01904039
:10041000E41AA2BF01EB0451294330BD6FEA040482
:100420001F3C1CDA0C340EDC04F11404C4F120026D
:1004300020FA04F001FA02F340EA030021FA04F37F
:1004400045EA030130BDC4F10C04C4F1200220FAD6
:1004500002F001FA04F340EA0300294630BD21FA14
:1004600004F0294630BD94F0000F83F4801306BFDA
:1004700081F480110134013D4EE77FEA645C18BFCE
:100480007FEA655C29D094EA050F08BF90EA020F65
:1004900005D054EA000C04BF1946104630BD91EA5D
:1004A000030F1EBF0021002030BD5FEA545C05D160
:1004B0004000494128BF41F0004130BD14F580049F
:1004C0003CBF01F5801130BD01F0004545F0FE4113
:1004D00041F470014FF0000030BD7FEA645C1ABF48
:1004E000194610467FEA655C1CBF0B46024650EA7F
:1004F000013406BF52EA033591EA030F41F40021AB
:1005000030BD00BF90F0000F04BF0021704730B530
:100510004FF4806404F132044FF000054FF0000105
:1005200050E700BF90F0000F04BF0021704730B5C6
:100530004FF4806404F1320410F0004548BF40429B
:100540004FF000013EE700BF42004FEAE2014FEAF0
:1005500031014FEA02701FBF12F07F4393F07F4FCB
:1005600081F06051704792F0000F14BF93F07F4FFD
:10057000704730B54FF4607401F0004521F0004140
:1005800020E700BF50EA010208BF704730B54FF0C6
:1005900000050AE050EA010208BF704730B511F0CB
:1005A000004502D5404261EB41014FF4806404F103
:1005B00032045FEA915C3FF4DCAE4FF003025FEA85
:1005C000DC0C18BF03325FEADC0C18BF033202EB0D
:1005D000DC02C2F1200300FA03FC20FA02F001FA67
:1005E00003FE40EA0E0021FA02F11444C1E600BF06
:1005F00070B54FF0FF0C4CF4E06C1CEA11541DBFB9
:100600001CEA135594EA0C0F95EA0C0F00F0DEF883
:100610002C4481EA030621EA4C5123EA4C5350EA68
:10062000013518BF52EA033541F4801143F48013B9
:1006300038D0A0FB02CE4FF00005E1FB02E506F04A
:100640000042E0FB03E54FF00006E1FB03569CF09F
:10065000000F18BF4EF0010EA4F1FF04B6F5007FA5
:1006600064F5407404D25FEA4E0E6D4146EB060617
:1006700042EAC62141EA55514FEAC52040EA5E50A0
:100680004FEACE2EB4F1FD0C88BFBCF5E06F1ED84A
:10069000BEF1004F08BF5FEA500E50F1000041EB81
:1006A000045170BD06F0004646EA010140EA02002E
:1006B00081EA0301B4EB5C04C2BFD4EB0C0541EA50
:1006C000045170BD41F480114FF0000E013C00F365
:1006D000AB8014F1360FDEBF002001F0004170BD89
:1006E000C4F10004203C35DA0C341BDC04F11404A2
:1006F000C4F1200500FA05F320FA04F001FA05F22E
:1007000040EA020001F0004221F0004110EBD370FA
:1007100021FA04F642EB06015EEA430E08BF20EA26
:10072000D37070BDC4F10C04C4F1200500FA04F3C9
:1007300020FA05F001FA04F240EA020001F000415B
:1007400010EBD37041F100015EEA430E08BF20EACE
:10075000D37070BDC4F1200500FA05F24EEA020E16
:1007600020FA04F301FA05F243EA020321FA04F045
:1007700001F0004121FA04F220EA020000EBD370FC
:100780005EEA430E08BF20EAD37070BD94F0000FFC
:100790000FD101F00046400041EB010111F4801F30
:1007A00008BF013CF7D041EA060195F0000F18BFE1
:1007B000704703F00046520043EB030313F4801F1D
:1007C00008BF013DF7D043EA0603704794EA0C0FD7
:1007D0000CEA135518BF95EA0C0F0CD050EA4106ED
:1007E00018BF52EA4306D1D181EA030101F000416A
:1007F0004FF0000070BD50EA410606BF1046194692
:1008000052EA430619D094EA0C0F02D150EA01369D
:1008100013D195EA0C0F05D152EA03361CBF1046DE
:1008200019460AD181EA030101F0004141F0FE417D
:1008300041F470014FF0000070BD41F0FE4141F401
:10084000780170BD70B54FF0FF0C4CF4E06C1CEA01
:1008500011541DBF1CEA135594EA0C0F95EA0C0FB6
:1008600000F0A7F8A4EB050481EA030E52EA033571
:100870004FEA013100F088804FEA03334FF0805592
:1008800045EA131343EA12634FEA022245EA1115BF
:1008900045EA10654FEA00260EF000419D4208BF70
:1008A000964244F1FD0404F5407402D25B084FEA1D
:1008B0003202B61A65EB03055B084FEA32024FF4C9
:1008C00080104FF4002CB6EB020E75EB030E22BF26
:1008D000B61A754640EA0C005B084FEA3202B6EBE6
:1008E000020E75EB030E22BFB61A754640EA5C0095
:1008F0005B084FEA3202B6EB020E75EB030E22BF25
:10090000B61A754640EA9C005B084FEA3202B6EB25
:10091000020E75EB030E22BFB61A754640EADC00E4
:1009200055EA060E18D04FEA051545EA16754FEA46
:1009300006164FEAC30343EA52734FEAC2025FEA64
:100940001C1CC0D111F4801F0BD141EA00014FF0F3
:1009500000004FF0004CB6E711F4801F04BF0143C4
:100960000020B4F1FD0C88BFBCF5E06F3FF6AFAEE0
:10097000B5EB030C04BFB6EB020C5FEA500C50F170
:10098000000041EB045170BD0EF0004E4EEA1131F3
:1009900014EB5C04C2BFD4EB0C0541EA045170BDFA
:1009A00041F480114FF0000E013C90E645EA060E3E
:1009B0008DE60CEA135594EA0C0F08BF95EA0C0F6C
:1009C0003FF43BAF94EA0C0F0AD150EA01347FF4B4
:1009D00034AF95EA0C0F7FF425AF104619462CE78B
:1009E00095EA0C0F06D152EA03353FF4FDAE1046EE
:1009F000194622E750EA410618BF52EA43067FF43F
:100A0000C5AE50EA41047FF40DAF52EA43057FF4CE
:100A1000EBAE12E74A0011D212F5001211D20DD539
:100A20006FF47873B3EB62520ED44FEAC12343F0F4
:100A3000004343EA505323FA02F070474FF000009E
:100A4000704750EA013002D14FF0FF3070474FF04D
:100A50000000704753B94AB9002908BF00281CBFDD
:100A60004FF0FF314FF0FF3000F07AB9ADF1080CD4
:100A70006DE904CE00F006F8DDF804E0DDE90223BC
:100A800004B070472DE9F0478C460D460446089E99
:100A9000002B51D18A4217466DD9B2FA82FEBEF1BF
:100AA000000F0BD0CEF1200C01FA0EF520FA0CFC51
:100AB00002FA0EF74CEA050C00FA0EF44FEA174A58
:100AC000250CBCFBFAF81FFA87F90AFB18CC45EA9B
:100AD0000C4508FB09F3AB420AD9ED1908F1FF32C6
:100AE00080F02381AB4240F22081A8F102083D440E
:100AF000ED1AA4B2B5FBFAF00AFB105544EA05441E
:100B000000FB09F9A14509D9E41900F1FF3380F090
:100B10000A81A14540F2078102383C44A4EB090454
:100B200040EA08400021002E61D024FA0EF4002390
:100B300034607360BDE8F0878B4207D9002E54D033
:100B4000002186E821000846BDE8F087B3FA83F16A
:100B5000002940F08E80AB4202D3824200F2FA803C
:100B6000841A65EB03050120AC46002E3FD086E8D1
:100B70001010BDE8F08712B90127B7FBF2F7B7FAFA
:100B800087FEBEF1000F34D1EB1B3A0C1FFA87FC35
:100B90000121B3FBF2F8250C02FB183345EA0345AB
:100BA0000CFB08F3AB4207D9ED1908F1FF3002D274
:100BB000AB4200F2D1808046ED1AA3B2B5FBF2F051
:100BC00002FB105543EA05440CFB00FCA44507D981
:100BD000E41900F1FF3302D2A44500F2B8801846B0
:100BE000A4EB0C0440EA08409DE731463046BDE8DE
:100BF000F087CEF1200405FA0EF307FA0EF720FA7B
:100C000004F83A0C25FA04F448EA0308B4FBF2F1BC
:100C10004FEA184502FB11441FFA87FC45EA0445D8
:100C200001FB0CF3AB4200FA0EF409D9ED1901F106
:100C3000FF3080F08A80AB4240F2878002393D4429
:100C4000EB1A1FFA88F5B3FBF2F002FB103345EA0A
:100C5000034500FB0CF3AB4207D9ED1900F1FF3857
:100C60006FD2AB426DD902383D44EB1A40EA0141E4
:100C70008FE7C1F1200722FA07F88B4005FA01F44B
:100C800048EA030320FA07FE4FEA134CFD404EEA00
:100C9000040EB5FBFCF94FEA1E440CFB19551FFA74
:100CA00083F844EA054509FB08F4AC4202FA01F274
:100CB00000FA01FA08D9ED1809F1FF3043D2AC422D
:100CC00041D9A9F102091D442D1B1FFA8EFEB5FB67
:100CD000FCF00CFB10554EEA054400FB08F8A0455B
:100CE00007D9E41800F1FF3529D2A04527D90238E9
:100CF0001C4440EA0940A4EB0804A0FB02894C45CF
:100D0000C6464D4615D312D056B1BAEB0E0364EB6E
:100D1000050404FA07F7CB401F43CC4037607460EA
:100D20000021BDE8F0871846F8E69046E0E6C245A7
:100D3000EAD2B8EB020E69EB03050138E4E7284676
:100D4000D7E7404691E78146BEE7014678E702389B
:100D50003C4445E7084608E7A8F102083D442BE774
:100D6000704700BF38B50E4A0E4B054618784FF451
:100D70007A73B3FBF0F31068B0FBF3F000F09CF86B
:100D8000044658B90F2D09D8024629464FF0FF30C6
:100D900000F05EF8044B20461D6038BD012038BDD0
:100DA00010000020000000200400002008B50B4BBC
:100DB0001A6842F400721A601A6842F480621A607B
:100DC0001A6842F480721A60032000F02FF80020A5
:100DD000FFF7C8FF02F040FB002008BD003C0240C6
:100DE000034A044B11681B780B441360704700BF23
:100DF0006401002000000020014B1868704700BF0C
:100E00006401002038B50446FFF7F6FF631C1CBFE1
:100E1000054B1B78054618BFE418FFF7EDFF401B94
:100E20008442FAD838BD00BF00000020074AD368CA
:100E300023F4E0631B041B0C43F0BF63000243F484
:100E4000003300F4E0600343D360704700ED00E03E
:100E5000174B30B5DC68C4F30224C4F10703251D29
:100E6000042B28BF0423062D4FF0010505FA03F3D8
:100E700003F1FF338CBF033C00241940A14005FA65
:100E800004F4013C2240002842EA01024FEA021227
:100E9000ADBF00F1604000F00F00064B00F561406F
:100EA000B5BFD2B2D2B21A5480F8002330BD00BF11
:100EB00000ED00E014ED00E00138B0F1807F0AD2CF
:100EC000064B074A5860F02182F8231000200722C1
:100ED00098601A6070470120704700BF10E000E082
:100EE00000ED00E02DE9F04F85B00B68DFF89C8144
:100EF000644A01934FF001090023019C09FA03F7AA
:100F000007EA0406B74240F0AD804C6824F0100AAE
:100F1000BAF1020F16D14FEAD30C00EB8C0C03F0A0
:100F2000070BDCF820504FEA8B0B4FF00F0E0EFA38
:100F30000BFE25EA0E0E0D6905FA0BF545EA0E05C6
:100F4000CCF820504FEA430C0325D0F800B005FA46
:100F50000CF5ED4304F0030E0BEA050B0EFA0CFE44
:100F60000AF1FF3A4EEA0B0EBAF1010F0095C0F8F4
:100F700000E015D8D0F808E005EA0E0ECD6805FAB5
:100F80000CFA4AEA0E0EC0F808E0D0F804E02EEAA7
:100F90000707C4F3001E0EFA03FE4EEA0707476078
:100FA000C768009D3D408F6807FA0CF73D43C56058
:100FB000E50057D54FF0000BCDF80CB0D8F84470D1
:100FC000314D47F48047C8F84470D8F8447007F4AE
:100FD00080470397039F23F0030707F1804707F536
:100FE0009C3703F0030CD7F808A04FEA8C0C4FF0A5
:100FF0000F0E0EFA0CFEA8422AEA0E0E39D005F5A5
:101000008065A84237D005F58065A84235D005F542
:101010008065A84233D005F58065A84214BF072536
:10102000042505FA0CF545EA0E05BD601568F74381
:1010300014F4803F0CBF3D4035431560556814F4EF
:10104000003F0CBF3D4035435560956814F4801F48
:101050000CBF3D4035439560D568A40254BF3D4068
:101060003543D5600133102B7FF447AF05B0BDE8A1
:10107000F08F5D46D5E70125D3E70225D1E70325AB
:10108000CFE700BF003C01400000024000380240B2
:101090000AB1816170470904FBE7436931EA030340
:1010A00008BF09048161704701684B6913F48063CC
:1010B0004FF0000210D06FF480634B612023026375
:1010C00080F83D3080F83E20036C80F83C2043F0EF
:1010D0000403036401207047184670472DE9F84364
:1010E000044617469946C1F307488EB22568B8F101
:1010F000010F0CBF6B69AB6936EA030314BF012013
:10110000002008B9BDE8F8836B695A0516D52B682D
:1011100043F400732B606FF480636B612022002323
:10112000236384F83D2084F83E30226C42F00402B0
:10113000226484F83C300120BDE8F8837B1CD5D0C4
:10114000FFF75AFEA0EB0900874201D3002FCDD153
:1011500000232022236384F83D2084F83E30226C53
:1011600042F02002E4E770B504460D4616462368B7
:101170005B695B0701D5002070BD2046FFF794FF37
:10118000A8B96A1CF3D0FFF737FE801B854201D354
:10119000002DECD100232022236384F83D2084F825
:1011A0003E30226C84F83C3042F020022264012060
:1011B00070BD2DE9F843089E044690461F46C1F3D2
:1011C00007498DB22368B9F1010F0CBF5B699B69B8
:1011D00035EA03030CBF01230023434502D000205E
:1011E000BDE8F8837B1CEDD0FFF706FE801B87422D
:1011F00001D3002FE6D100232022236384F83D2071
:1012000084F83E30226C84F83C3042F020022264A4
:101210000120BDE8F88370B504460D4616462368E4
:101220005B691B0601D5002070BD2046FFF73CFF1F
:10123000A8B96A1CF3D0FFF7DFFD801B854201D3FC
:10124000002DECD100232022236384F83D2084F874
:101250003E30226C84F83C3042F0200222640120AF
:1012600070BD000070B5044608B9012070BD90F84B
:101270003D3003F0FF021BB980F83C2002F00CF96E
:101280002268242384F83D30136823F0010313609F
:1012900000F04CFC6568414B9D424DD8404B984254
:1012A000E3D922683F495368B0FBF1F123F03F03D3
:1012B0000B435360136A23F03F030131194311625A
:1012C000D169364B21F44F419D4221F0FF0100F1DD
:1012D000FF3048D86D00B0FBF5F00130C0F30B03D0
:1012E000042B38BF04230B43D3611168206AE369E0
:1012F00021F0C00103430B4313609168E068236948
:1013000021F40341034321F0FF010B439360D168B3
:10131000A069636921F0FF0103430B43D3601368A5
:1013200043F00103136000202023206484F83D3043
:10133000206384F83E0070BD1B4B984295D922680B
:10134000184E5368B0FBF6F623F03F033343536067
:10135000136A4FF49671714323F03F034FF47A768A
:10136000B1FBF6F1A9E7A36853B905EB4503B0FB60
:10137000F3F0431CC3F30B036BB143F40043B2E738
:1013800019236B43B0FBF3F0431CC3F30B0313B1FE
:1013900043F44043A7E70123A5E700BFA08601006F
:1013A0007F841E0040420F00FF083D002DE9FF41F1
:1013B00004461F460D469046FFF71EFD94F83D304B
:1013C000202B064604D00225284604B0BDE8F08153
:1013D00000901923012258492046FFF7EAFE002811
:1013E000F1D194F83C30012BEDD0012384F83C304E
:1013F00023681A68D2075EBF1A6842F001021A60B9
:101400001A6822F400621A60212284F83D2010221A
:1014100084F83E20002222646785628D2285474A37
:10142000E262E26AC4F82480082A04D0012A02D0C9
:1014300012F5803F04D11A6842F480721A6002E00B
:10144000226B122AF7D000960A9B00224FF001115E
:101450002046FFF7AEFE08B10125B5E723692268F3
:10146000B3F5804F13D105F0FE05156133460A9A96
:1014700033492046FFF732FE05460028ECD12368A9
:1014800003905A6903929B690393039B44E0EB1119
:1014900003F0060343F0F00313612A490A9A334626
:1014A0002046FFF71BFE0028D6D12368EDB21D6150
:1014B000DCE732460A992046FFF7ADFE40B1236CC7
:1014C000042B01BF2268136843F400731360C3E761
:1014D000636A20681A4612F8011B01616262628D1C
:1014E000013A92B26285228D4769511E89B27F0707
:1014F00021850AD549B15978016102336362638D50
:10150000013B9BB2023A6385228532460A99204606
:10151000FFF729FE0028D2D1238D002BC9D12168E5
:101520000A6842F400720A60202284F83D2084F8A0
:101530003C3084F83E3047E7020010000000FFFF17
:1015400002000100080001002DE9F04F044685B0BB
:10155000984689469246FFF74FFC94F83D30202B81
:10156000054603D0022005B0BDE8F08F0090192396
:10157000012248492046FFF71CFE0028F2D194F8CA
:101580003C30012BEED0012384F83C302368DFF897
:1015900004B11A68D2075EBF1A6842F001021A60ED
:1015A0001A6822F400621A60242384F83D30002374
:1015B0002364A3F58033E362012709F0FE09226862
:1015C000136843F4807313604FF001110095434694
:1015D00000222046FFF7EDFD08B10120C3E7236894
:1015E000C3F81090FFF708FC23685A695B69054649
:1015F000C2F34002C3F38023A02694F83D10A02933
:1016000001D002B903B32368202684F83D605A69EB
:1016100012F0020F1A6842F400721A6026D00022FB
:1016200003925A6903929B690393039B00951923C4
:10163000012218492046FFF7BCFD0028CDD184F8CF
:101640003D6084F83C008EE7FFF7D6FB401B8045E9
:1016500002D3B8F1000F01D184F83D6023685A69C4
:101660005B69C2F34002C3F38023C6E76FF4806274
:101670005A6159460095192301222046FFF799FD2A
:101680000028AAD10137574599D384F83D6084F8E2
:101690003C00A2E7020010002DE9F341044618B90E
:1016A000012002B0BDE8F0810368DD0710D4236893
:1016B000980758D423681A0700F19A8023685B07BB
:1016C00000F1B880A269002A40F019810020E8E703
:1016D000A64B9A6802F00C02042A07D09A6802F01E
:1016E0000C02082A0AD15B68590207D59F4B1B6878
:1016F0009A03DCD56368002BD9D1D1E763689B4D91
:10170000B3F5803F11D12B6843F480332B60FFF792
:1017100073FB964D06462B689B03C8D4FFF76CFB02
:10172000801B6428F7D90320BBE7B3F5A02F04D1B1
:101730002B6843F480232B60E5E72A6822F480328B
:101740002A602A6822F480222A60002BDFD1FFF76A
:1017500053FB06462B689F03A9D5FFF74DFB801B63
:101760006428F7D9DFE7814B9A6812F00C0F07D095
:101770009A6802F00C02082A11D15B685E020ED44E
:101780007A4B1A68950702D5E268012A88D11A684F
:10179000216922F0F80242EAC1021A608AE7E2688F
:1017A000734BB2B101221A60FFF726FB6F4D06465C
:1017B0002B68980707D52B68226923F0F80343EAC2
:1017C000C2032B6076E7FFF717FB801B0228EFD9D7
:1017D000A9E71A60FFF710FB644D06462B689907CE
:1017E0007FF568AFFFF708FB801B0228F6D99AE760
:1017F0006269604B7AB101221A60FFF7FDFA5B4D16
:1018000006466B6F9F073FF559AFFFF7F5FA801B50
:101810000228F6D987E71A60FFF7EEFA534D06461D
:101820006B6F98077FF54AAFFFF7E6FA801B022837
:10183000F6D978E74D4B1A6C12F0805228D10192FC
:101840001A6C42F080521A641B6C03F080530193AF
:10185000019B0126484D2B68D9051BD5A368434D34
:10186000012B27D12B6F43F001032B67FFF7C4FA3D
:101870003E4D074641F288382B6F9B0739D5002E25
:101880003FF420AF394A136C23F08053136419E7F7
:101890000026DFE72B6843F480732B60FFF7ACFA78
:1018A00007462B68DA05D9D4FFF7A6FAC01B022831
:1018B000F7D938E7052B04D12B6F43F004032B67CE
:1018C000D0E72A6F22F001022A672A6F22F0040271
:1018D0002A67002BCAD1FFF78FFA41F288380746F2
:1018E0002B6F9807CBD5FFF787FAC01B4045F7D978
:1018F00019E7FFF781FAC01B4045BDD913E71B4D1F
:10190000AB6803F00C03082B3FF4CAAE1B4E002358
:10191000022A336034D1FFF76FFA07462B6899012A
:101920001ED4226AE3691343626A43EA8213E26ABD
:1019300043EA0263A26A0D4C5208013A43EA0243A9
:101940006B6001233360FFF757FA054623689A015D
:101950003FF5BCAEFFF750FA401B0228F6D9E2E68D
:10196000FFF74AFAC01B0228D8D9DCE6003802404B
:1019700000004742800E474200700040600047422E
:10198000FFF73AFA04462B689B017FF59FAEFFF7FD
:1019900033FA001B0228F6D9C5E600BF134908B583
:1019A0008B6803F00C03042B03D0082B03D01048E2
:1019B00008BD104808BD4A684B68496813F48003A5
:1019C00014BF0C480A48C1F3881118BF002302F065
:1019D0003F02A1FB0001FFF73DF8044B5B68C3F336
:1019E000014301335B00B0FBF3F008BD0038024057
:1019F0000024F40000127A002DE9F0410D4604465F
:101A000010B90120BDE8F081444B1A6802F00F02C2
:101A10008A4228D321688F072DD4C80740D43F4B72
:101A20001A6802F00F02954266D3226851076CD4FF
:101A3000130707D53A4A2169936823F4604343EAC0
:101A4000C1039360FFF7AAFF354B364A9B68C3F387
:101A50000313D35CD840344B18600020FFF782F9A1
:101A60000020BDE8F081CAB21A701B6803F00F03B2
:101A70009942C6D1CEE72A4B11F0040F1EBF9A68D7
:101A800042F4E0529A600E0742BF9A6842F4604204
:101A90009A609A68A06822F0F00202439A60BCE75C
:101AA00062681F4B012A1DD11B6813F4003FA8D0A8
:101AB0001B4EB36823F003031343B360FFF79CF995
:101AC00041F288380746B368626803F00C03B3EB51
:101AD000820FA4D0FFF790F9C01B4045F3D9032033
:101AE000BDE8F081911E01291B6802D813F0007F28
:101AF000DDE713F0020FDAE7EAB21A701B6803F0B1
:101B00000F039D427FF47DAF8FE70549E0688B6846
:101B100023F4E05303438B608AE700BF003C02409C
:101B2000003802408D42000810000020044B054A96
:101B30009B68C3F38223D35C034A1068D840704784
:101B4000003802409D42000810000020044B054A66
:101B50009B68C3F34233D35C034A1068D840704794
:101B6000003802409D420008100000200F2303604F
:101B70000B4B9A6802F0030242609A6802F0F0028E
:101B800082609A6802F4E052C2609B68DB0803F44A
:101B9000E0530361034B1B6803F00F030B607047B6
:101BA00000380240003C0240F8B504460E46154697
:101BB0001F4621688A6836EA020301D00020F8BD7A
:101BC0006B1CF7D0FFF718F9C01B8542F1D82368CA
:101BD0005A6822F0E0025A606268B2F5827F0AD148
:101BE000A268B2F5004F02D0B2F5806F03D11A6837
:101BF00022F040021A60A26AB2F5005F07D11A68AB
:101C000022F400521A601A6842F400521A6001234A
:101C100084F85130002384F850300320F8BD0000D0
:101C200073B51346134A144E15684268B5FBF6F6B1
:101C30004FF47A757543B2F5827F044601950DD154
:101C40000A468021FFF7B0FF10B9002002B070BD36
:101C5000636D43F0200363650320F7E7019B002BCE
:101C6000F3D0019B013B019323689B681B06F5D4CD
:101C7000EBE700BF1000002000366E0110B50446EF
:101C8000002836D00023836290F8513003F0FF0221
:101C90001BB980F8502001F039FC2168A068A269C6
:101CA000022384F851300B6823F040030B60636813
:101CB0000343E06803432069034360690343E06929
:101CC0000343206A0343A06A034302F40070034302
:101CD0000B60120C636A02F004021A434A60CB697B
:101CE00023F40063CB6100200123606584F8513048
:101CF00010BD012010BD2DE9F7431E4690F850306D
:101D00000A9F012B04460D46914600F0E280012314
:101D100080F85030FFF770F894F851306168DBB20A
:101D2000012B80460AD0B1F5827F40F0D080A068B8
:101D3000002840F0CC80042B40F0C980002D00F03A
:101D4000C480B9F1000F00F0C080002E00F0BD800B
:101D500094F85130C4F83890042B1CBF052384F844
:101D6000513000236365236463642368E687E68655
:101D70001A68A687500658BF1A68256358BF42F0F4
:101D80004002A68658BF1A60E268B2F5006F58D1CB
:101D900009B1012E07D135F8022BDA60E38E2563F5
:101DA000013B9BB2E3860125E38E9BB2ABB9E38F87
:101DB0009BB293B9424639462046FFF731FF0028CF
:101DC00040F08180A368002B32D123680190DA684B
:101DD00001929B680193019B2AE02268936899070E
:101DE0000DD5E38E9BB253B14DB1236B33F8021B7B
:101DF000D1602363E38E013B9BB2E38600259368A9
:101E0000DB070CD5E38F9BB24BB1A36BD26823F8F1
:101E1000022BA363E38F013B9BB2E3870125FEF70F
:101E2000EBFFA0EB08008742BED87E1CBCD003208D
:101E3000012384F85130002384F8503003B0BDE80A
:101E4000F08309B1012E08D12A781A73236B01336C
:101E50002363E38E013B9BB2E3860125E38E9BB2B5
:101E60001BB9E38F9BB2002BA4D02268936898071C
:101E70000ED5E38E9BB25BB155B1236B1B78137308
:101E8000236B01332363E38E013B9BB2E386002582
:101E900022689368D9070DD5E38F9BB253B1A36B2A
:101EA000D2681A70A36B0133A363E38F013B9BB22B
:101EB000E3870125FEF7A0FFA0EB08008742CDD8FD
:101EC0007B1CCBD0B3E7202363650120B0E7022061
:101ED000AEE70220B2E70000036A23F001030362C9
:101EE000036A70B5446882690D6822F073022A4360
:101EF0008D6823F002032B430A4DA8420BD1CD6815
:101F00008E6923F008032B434D6924F44074354354
:101F100023F004032C43446082614A6842630362F5
:101F200070BD00BF00000140036A23F480730362A8
:101F3000036A70B54468C2690D6822F073022A43CF
:101F40008D6823F4007343EA05230B4DA8420DD19D
:101F5000CD688E6923F4006343EA05234D6924F4B8
:101F60004054354323F4806344EA05144460C2615D
:101F70004A68C263036270BD00000140036A23F433
:101F800080530362036A30B54468C2690D6822F465
:101F9000E64242EA05228D6823F4005343EA053302
:101FA000064DA84202BF4D6924F4804444EA8514DA
:101FB0004460C2614A680264036230BD00000140AF
:101FC00070470000244A036890420ED0B0F1804F61
:101FD0000BD0A2F57C42904207D002F5806290427D
:101FE00003D002F58062904215D14A6823F0700355
:101FF0001343194A904219D0B0F1804F16D0A2F580
:102000007C42904212D002F5806290420ED002F5DE
:10201000806290420AD0114A904207D002F5806255
:10202000904203D002F58062904203D1CA6823F443
:10203000407313434A6923F08003134303608B68A2
:10204000C3620B688362044B984204BF0B6903634D
:1020500001234361704700BF000001400040014080
:1020600010B50446A0B190F83D3003F0FF021BB953
:1020700080F83C2001F096FA022384F83D30206875
:10208000211DFFF79FFF012384F83D30002010BD84
:10209000012010BD10B50446A0B190F83D3003F00A
:1020A000FF021BB980F83C20FFF78AFF022384F867
:1020B0003D302068211DFFF785FF012384F83D3066
:1020C000002010BD012010BD036A23F0100303623D
:1020D000036A70B5446882690D6822F4E64242EAF8
:1020E00005228D6823F0200343EA05130B4DA84217
:1020F0000DD1CD688E6923F0800343EA05134D6945
:1021000024F44064354323F0400344EA85044460EA
:1021100082614A688263036270BD00BF00000140B3
:1021200038B590F83C30012B04464FF0020025D022
:10213000012384F83C3084F83D000C2A18D8DFE8ED
:1021400002F0071717171E1717172F17171740003A
:102150002068FFF7C1FE236809699A6942F0080206
:102160009A619A6922F004029A619A690A439A6113
:102170000123002084F83D3084F83C0038BD2068FD
:10218000FFF7A2FF236809699A6942F400629A6125
:102190009A6922F480629A619A6942EA0122E6E72A
:1021A0002068FFF7C1FE23680969DA6942F0080276
:1021B000DA61DA6922F00402DA61DA690A43DA6183
:1021C000D6E72068FFF7DAFE23680969DA6942F486
:1021D0000062DA61DA6922F48062DA61DA6942EA7D
:1021E0000122ECE710B584680A4324F47F4442EAF4
:1021F00003232343836010BD90F83C30012B70B55E
:1022000004464FF0020019D084F83D0020680123F5
:1022100084F83C30836823F47F4323F077038360A2
:102220000B68402B65D015D8102B0CD007D853B1B4
:102230000123002084F83D3084F83C0070BD202B41
:1022400001D0302BF4D1826843F0070322F07002F2
:1022500013431AE0602B34D019D8502BE8D14A68C8
:10226000CE68016A056A25F001050562836921F0DF
:102270000A0123F0F00343EA06130A438361026272
:10228000836823F0700343F057038360D0E7702B1B
:102290000CD0B3F5005FCBD1CB684A688968FFF7F3
:1022A000A1FF2268936843F4804308E0CB684A6842
:1022B0008968FFF797FF2268936843F0770393607C
:1022C000B6E74D68CE68016A21F0100101628269AB
:1022D000036A22F4704223F0A00343EA051342EAA2
:1022E000063282610362836823F0700343F0670360
:1022F000CBE74A68CE68016A056A25F001050562E8
:10230000836921F00A0123F0F00343EA06130A432C
:1023100083610262836823F0700343F04703B4E7EC
:10232000036A01F01F0110B501248C4023EA040365
:102330000362036A8A401A43026210BD10B5044664
:1023400001220068FFF7ECFF2368094A934202BFAD
:102350005A6C42F400425A649A6802F00702062A54
:102360001EBF1A6842F001021A60002010BD00BFB3
:102370000000014090F83C30012B30B54FF00203D3
:1023800014D0046880F83D306268A3680D6849681D
:1023900022F0700223F080030B432A436260A360A3
:1023A000012380F83D30002380F83C30184630BDD2
:1023B00090F83C30012B1FD0CB688A6823F440731F
:1023C00013434A6823F4806313430A6823F40063C9
:1023D00013430A6923F4805313434A6923F40053D7
:1023E0001343CA6923F480431343026853640023F0
:1023F00080F83C3018467047022070472DE9F047BE
:102400000668C2683369C16923F4405313433361DA
:10241000044683680069F2680343606922F4164247
:10242000034322F00C020B431343F3607369A26968
:1024300023F440731343B1F5004F73617A4B7CD1A1
:102440009E4203D003F580639E4244D1FFF77EFB9A
:10245000192505FB00F360684FF064094000B3FBE9
:10246000F0F3B3FBF9F34FEA0318FFF76FFB636870
:1024700068435B00B0FBF3F7FFF768FB63686843F2
:102480005B00B0FBF3F3B3FBF9F309FB1373DB0061
:102490003233B3FBF9F35B0003F4F877FFF756FB35
:1024A000626868435200B0FBF2FAFFF74FFB6368C3
:1024B00068435B00B0FBF3F3B3FBF9F309FB13A331
:1024C000DB003233B3FBF9F303F0070343443B442F
:1024D000B360BDE8F087FFF729FB192505FB00F382
:1024E00060684FF064094000B3FBF0F3B3FBF9F30D
:1024F0004FEA0318FFF71AFB636868435B00B0FB01
:10250000F3F7FFF713FB636868435B00B0FBF3F37B
:10251000B3FBF9F309FB1373DB003233B3FBF9F3BD
:102520005B0003F4F877FFF701FB62686843520031
:10253000B0FBF2FAFFF7FAFAB9E79E4202D03B4B42
:102540009E4240D1FFF702FB676819254FF06409EE
:1025500005FB00F3BF00B3FBF7F3B3FBF9F31F0177
:10256000FFF7F4FA636868439B00B0FBF3F8FFF7EA
:10257000EDFA636868439B00B0FBF3F3B3FBF9F338
:1025800009FB13831B013233B3FBF9F303F0F008AB
:10259000FFF7DCFA626868439200B0FBF2FAFFF7DB
:1025A000D5FA636868439B00B0FBF3F3B3FBF9F320
:1025B00009FB13A31B013233B3FBF9F303F00F0341
:1025C00043EA080383E7FFF7B1FA676819254FF07C
:1025D000640905FB00F3BF00B3FBF7F3B3FBF9F3AA
:1025E0001F01FFF7A3FA636868439B00B0FBF3F891
:1025F000FFF79CFA636868439B00B0FBF3F3B3FBFF
:10260000F9F309FB13831B013233B3FBF9F303F036
:10261000F008FFF78BFA626868439200B0FBF2FAA9
:10262000FFF784FABDE700BF00100140001401402D
:10263000F8B504460E4617461D4621680B6836EA73
:10264000030301D10020F8BD6B1CF7D095B92368B6
:10265000DA6822F4D072DA605A6922F001025A6113
:10266000202384F8393084F83A30002384F8383055
:102670000320F8BDFEF7C0FBC01B8542DDD2E6E7B4
:1026800010B5044640B390F8393003F0FF021BB98F
:1026900080F8382000F0CAFF2268242384F83930FB
:1026A000D36823F40053D3602046FFF7A7FE2368C6
:1026B0001A6922F490421A615A6922F02A025A6178
:1026C000DA6842F40052DA6000202023E06384F8E4
:1026D000393084F83A3010BD012010BD2DE9F041A9
:1026E0001F4690F83930202B04460D4690464FD1B6
:1026F00000294AD0002A48D090F83830012B47D022
:10270000012380F838300023C363212380F8393057
:10271000FEF772FBA4F824800646A4F82680E38C1A
:102720009BB26BB93B46324640212046FFF780FF03
:10273000B0B9202384F8393084F83800BDE8F0813E
:10274000E38C013B9BB2E384A368B3F5805F324620
:102750003B464FF0800120460ED1FFF769FF10B1D4
:102760000320BDE8F0812B882268C3F3080353607F
:10277000236943B90235D2E7FFF75AFF0028EFD1AA
:1027800023682A785A600135C9E70120BDE8F08145
:102790000220BDE8F0812DE9F041069E00244FEAB9
:1027A000860C4FF000089C4216DAC2F8008086467C
:1027B0000F460025AE420BDDFEEC016AB7EC017A54
:1027C000D2ED007AE6EE877A0135C2ED007AF1E7C4
:1027D000043201346044E6E7BDE8F0812DE9F04FB2
:1027E0002DED028B9E4DDFF88092DFF880A29D4C8C
:1027F00085B090462A60920002AFC9F8003002F11D
:102800000A0323F00703C7F804D0ADEB030D02AEB3
:1028100083462060CAF8001030460021B0EE408A9E
:1028200000F0E5FFCDF800B043463246396EB86C93
:10283000FFF7B1FFD5F800B04FEA8B0202F10A03AF
:1028400023F00703ADEB030D0DF10808002140460E
:1028500000F0CDFFD9F80030009342465B46796E18
:10286000F86CFFF798FFBB6DD5F800E0F86CD7F86F
:10287000549042469C460021D046B7EE007A7145FE
:10288000C0F29080D5F800E07A6ED7F804D0F96DE8
:1028900002EB8E0C00204FF000097045C0F29680CC
:1028A000D4F800904FEA890202F10A0323F00703EB
:1028B000ADEB030D02AE0021304600F098FFCDF8DD
:1028C00000904B463246396EB86BFFF764FFD4F880
:1028D00000A04FEA8A0202F10A0121F00701ADEBE4
:1028E000010D0DF108090021484600F080FF2B681A
:1028F00000934A465346796DF86BFFF74CFFD8F8C2
:1029000000A04FEA8A0202F10A0121F00701ADEBB3
:10291000010D02AD0021284600F069FF23680093F5
:102920002A465346396E386CFFF735FFD4F800B0AD
:102930004FEA8B0202F10A0121F00701ADEB010D14
:102940000DF1080A0021504600F051FFD8F8003080
:10295000009329465B465246386DFFF71CFFD4F8BA
:1029600000B04FEA8B0202F10A0121F00701ADEB42
:10297000010D02AD0021284600F039FFD8F80030E3
:1029800000932A465B46F96D386DFFF704FF216816
:102990003B6E00228A4251DB0C37BD46BDEC028BF8
:1029A000BDE8F08FF0EC014AF6EC017AF2EC015A46
:1029B000FCEC016A37EE485A77EEE57A84EE856AD8
:1029C0000131D6EE267AE9EC017A58E7BE6E46B9B7
:1029D00093ED007AD2ED007A77EE877A91ED007A66
:1029E0000FE0BE6E012E1CD1D3ED007A91ED007A7E
:1029F000F4EEC77AF1EE10FA11DDD2ED006A77EE4F
:102A0000A67A77EEC77AC2ED007A03E046F8049B17
:102A10006645FBD101300432043304313DE77E6E5C
:102A2000F6E7BE6E022ED3D1D3ED007A91ED007A97
:102A3000F4EEC77AF1EE10FAECDDDEE7F6EC017A9F
:102A4000BAEC016AF9EC016AB5EC017A77EEC67A64
:102A5000013277EEA67A77EE877AE3EC017A99E78E
:102A600070010020740100206C010020680100202A
:102A7000074B0138D8621A6922F001021A611A68FC
:102A800042F001021A601A69D207FCD5704700BFF4
:102A9000000400402DE9F341154C164E6378164FA3
:102AA000164D398843F0040363703368009322465F
:102AB0004FF013080223284684F80080FEF776FCC6
:102AC0000F4B1868FFF7D4FF6378398884F80080CB
:102AD00023F00403637033680093224602232846E0
:102AE000FEF764FC3C2002B0BDE8F041FFF7C0BF38
:102AF000F60000209C00002094000020A000002090
:102B00000C0000200000000010B586B0694601A846
:102B1000FFF72CF8049B002B2CD1FFF707F8FDF7EB
:102B2000F1FC19A3D3E90023FDF762FD144A154C0B
:102B3000136C43F002031364236823F01003236033
:102B4000236823F001032360236823F00403236038
:102B5000236843F008032360FDF75CFF0923013875
:102B6000A062E36201236361236923F0010323610F
:102B700006B010BDFEF7DAFF4000D0E7AFF30080EB
:102B800000380240000400408DEDB5A0F7C6B03E0D
:102B90002DE9F341194C12232370194B1E78012E95
:102BA00005460FD1174B60701988174B1B680093AF
:102BB000224602231548FEF7F9FB02B0BDE8F041BA
:102BC000FFF768BF022E16D10F4FDFF838800309D8
:102BD00063703B68B8F800100093224633460B48F8
:102BE00005F00F05FEF7E2FBFFF754FF6570B8F83C
:102BF00000103B68DBE702B0BDE8F081F400002084
:102C00000A000020940000209C000020A00000206A
:102C100007B5094A094813231370537823F00103B9
:102C20005370074B1988074B1B6800930223FEF76C
:102C3000BDFB03B05DF804FBF6000020A0000020FF
:102C4000940000209C00002010B50446FFF7E0FF30
:102C50002046BDE81040FFF79BBF000084B02DE97F
:102C6000F74F244FBDF88460DDF88C90DDF890803C
:102C7000DDF888A0BDF894B01F4D0CAC84E80F00BF
:102C8000214654221D481E4C00F0A6FDC7F80080C6
:102C9000DFF8788019482E8031464B465246C4F8FA
:102CA0000090A8F800B0FEF74FFC0646E0B9B8F86F
:102CB00000103868FEF7F1F9124A23681670567052
:102CC000298800930D480223FEF770FB0E4A2988DD
:102CD0000A480123137023681093022303B0BDE850
:102CE000F04F04B0FEF762BB03B0BDE8F04F04B094
:102CF000704700BF9800002094000020A000002032
:102D00009C000020F4000020F60000209600002027
:102D100038B5FFF7F9FE144B01241C70134B38250E
:102D200014201D70FEF76EF83020FFF78DFF052090
:102D3000FEF768F83020FFF787FF2046FEF762F8BD
:102D40003020FFF781FF2046FEF75CF82846FFF7AA
:102D50007BFF0F20FFF778FF2046FFF775FF02206B
:102D6000BDE83840FEF74EB80A00002009000020F8
:102D70002DE9F743114FDFF84C80DFF84C90461EE9
:102D800000F10F0516F8014FA4B113233B707B78B7
:102D9000B8F80010094A0A4843F001037B70D9F8DB
:102DA000003000930223FEF701FB2046FFF7F0FE00
:102DB000AE42E7D103B0BDE8F08300BFF6000020CB
:102DC000A0000020940000209C000020013901F0A8
:102DD0000F0101280CBF41F0800041F0C000FFF757
:102DE00033BFC020FFF730BF034B187800F0FD0061
:102DF0001870FFF729BF00BF08000020034B1878A8
:102E000000F0FE001870FFF71FBF00BF0800002091
:102E100084B008B50DF1080E8EE80F0058227146F7
:102E2000064800F0D9FC064B189A1A60054BBDF80D
:102E300064201A80BDE8084004B0704700010020FB
:102E4000FC000020F8000020F0B5C00085B0224F43
:102E5000224E234C398800F03800002260F03F00F9
:102E60000A25ADF808208DF8080030688DF80A2092
:102E7000ADF80C208DF80E20FEF70AF903AA02A97E
:102E8000009501232046FEF736FF0DF10D020DF1EE
:102E90000901009501232046FEF72DFF01230DF1C6
:102EA0000E020DEB050100952046FEF724FF306869
:102EB00039880122FEF7ECF89DF80E009DF80D30E0
:102EC000C00940EA43009DF80C305B0203F4007334
:102ED000184305B0F0BD00BFF8000020FC00002042
:102EE0000001002030B595B03022002108A800F084
:102EF0007EFC0021142203A800F079FC00241C4B66
:102F000001941A6C42F080521A641B6C194A03F047
:102F100080530193019B0294136823F4404343F4CC
:102F20000043136013680F9403F440430293029B21
:102F300001230B9310230C9310934FF4A873119358
:102F400004230225129308A80723139308950E95CE
:102F5000FEF7A2FB0F23039329464FF4805303A8E7
:102F60000495059406930794FEF746FD15B030BD11
:102F700000380240007000402DE9F04F2DED028B2B
:102F8000ADF53F7D5AAFFDF711FFFFF7ABFF142200
:102F900000213846002400F02AFCD54B1E941A6B01
:102FA000DFF898B3DFF89883D24ED34D42F0010298
:102FB0001A631A6B02F001021E921E9A1F941A6B7A
:102FC00042F002021A631B6B03F0020322461F93B6
:102FD0004FF4846158461F9BFEF75AF84FF4846201
:102FE00001233946584687E80C00BC60FC60FDF7B9
:102FF00079FFC249C24BC8F8084088E80A00404639
:103000004FF48043C8F80C40C8F81030C8F814409A
:10301000C8F81840C8F81C40C8F82040FEF722F94C
:10302000B848B4604FF4827386E809004FF4007327
:10303000B3612023F36130460A230DF5A079F362D2
:103040000DF1F00A1793F4603461746134627462B4
:10305000B462FEF713FE2146102246A800F0C7FB1B
:1030600021461C224846CAF80040CAF8044000F035
:10307000BEFB21462022384600F0B9FBA24AAC60D4
:103080004FF0540E2823284685E80440EB602C615D
:103090006C61AC61FEF7E4FF4FF4805246A928460C
:1030A0004692FFF7A9F82846FEF7F4FF5146284656
:1030B000CAF80040CAF80440FFF75CF9602289E8CA
:1030C0001400494622462846C9F80840C9F80C4071
:1030D000C9F81040C9F81440C9F81840FFF720F8A3
:1030E0004FF40052394628467A613C607C60BC60EF
:1030F000FC603C61FC61FFF75BF9284600F06AFA6E
:103100008248834A84604FF4E13C80E804100C223A
:10311000C460046142618461C461FFF7B1FA202395
:103120001593179B1393052308F110011293442262
:10313000402368461193CDF850B000F04DFB98E85D
:103140000F00FFF78BFDFFF7E3FDFFF74DFEFFF7E5
:1031500055FE7048FFF70CFEFFF743FE4FF4806307
:1031600006F11001482268461393CDF848B000F0EC
:1031700033FB96E80F00FFF74BFE21462846FFF78A
:10318000DDF82146102224A800F031FB624E2146D2
:103190000E2220A800F02BFB4FF4C8725F4938467E
:1031A00000F01AFB0FCE0DF1A00EAEE80F000FCE0F
:1031B000AEE80F0096E8030006F1080C8EE8030065
:1031C000BCE80F000DF1C80EAEE80F00BCE80F0020
:1031D000AEE80F009CE8030006F1300C8EE8030017
:1031E000BCE80F00D646AEE80F00BCE80F00AEE822
:1031F0000F009CE8030058368EE803000FCE4FF016
:1032000000080DF58C7ECDF86080AEE80F000FCE83
:10321000AEE80F0096E80300414B19938EE80300D7
:1032200028222146484600F0E2FA2E463D4B3E4D0C
:10323000CDF86880CDF86C801C93CDF874800024A4
:103240000120FFF701FE07EE900AF8EE677A17EE0D
:10325000900AFDF779F924A3D3E90023FDF7F2FAE8
:1032600022462B46FDF7C4F9FDF7D4FB5FFA80F840
:103270000020FFF7E9FD07EE900AB8EE677ADFED70
:103280002B7AC7EE276A9FED2A7AFEEE007AE6EEE9
:10329000877A9FED287A87EE878AFCEEC87ACDED93
:1032A000177A9DF85CB007EE90BAF8EE677A78EE80
:1032B000677A17EE900AFDF747F922462B46FDF78D
:1032C00097F9FDF7A7FBC0B242465B4600901A494A
:1032D00024A800F095FA01210220FFF777FD24A829
:1032E000FFF746FD2EE000BF0000000000F88F4011
:1032F000003802400C020020CC01002000540040A5
:10330000A08601000030014000000140640200205E
:10331000004400406C420008CC4100083C400008DA
:10332000D2A9CB3E0000C8410000594000C07F44F4
:10333000333353400AD7233C7C420008000002404C
:10334000780100201CAB089319AB059346AB04939E
:1033500018AB07EE908A039332AB0021029328AB9F
:10336000F8EE677A1DAA0C910DF16C081AA9019369
:1033700001230B910992CDF82890CDF81C80CDF84F
:1033800018A00097B6EE000A1A4619460A20CDED9D
:103390001C7A8DED1D8AFFF721FA98ED007AB5EEC3
:1033A000C07AF1EE10FA48D50023C8F80030D8ED05
:1033B000007A3268FCEEE77A062017EE903AC2ED0A
:1033C0000D7ADDED1C7A8DF88630FCEEE77A8DF80B
:1033D0008000CDED177ADDED1D7ABDF85C108DF81B
:1033E0008210FCEEE77A4FEA112ECDED177ABDF888
:1033F0005C208DF88420110AC3F3072200238DF886
:1034000083108DF885208DF887308DF888308DF801
:1034100089308DF88A308DF88B308DF88C308DF8AE
:103420008D000A230E2220A909488DF881E0FFF7BC
:1034300055F98320FDF7E6FC02E7DFED067AB4EEEE
:10344000E77AF1EE10FAC8BFC8ED007AAFE700BF27
:10345000640200200000C84207B50E4B0021009115
:103460005A6C42F480425A645A6C02F480420092D0
:10347000009A01911A6C42F080521A641B6C03F09E
:10348000805301930720019BFDF7D0FC03B05DF84A
:1034900004FB00BF0038024030B5044689B0142256
:1034A000002103A800F0A3F92268154B9A4224D109
:1034B000144C154800250195236B43F00203236348
:1034C000236B03F002030193019B4FF440730393BA
:1034D00012230493012305930323069303A90423D2
:1034E0000793FDF7FFFC0295236C43F4001323645C
:1034F000236C03F400130293029B09B030BD00BF9C
:10350000005400400038024000040240F0B5044678
:1035100089B01422002103A800F069F922681E4B2B
:103520009A4236D103F58433002400945A6C1B4828
:1035300042F480525A645A6C02F480520092009A0B
:1035400001941A6B42F001021A631A6B02F0010235
:103550000192019A02941A6B42F002021A631B6BE9
:1035600003F002030293029B0227C02303260525D2
:1035700003A90393049706960795FDF7B3FC082368
:1035800003A9074803930497059406960795FDF74A
:10359000A9FC09B0F0BD00BF0030014000000240AE
:1035A000000402400268094B9A4282B00BD100230A
:1035B0000193074B5A6C42F001025A645B6C03F0B2
:1035C00001030193019B02B0704700BF000001405E
:1035D0000038024010B5044686B01422002101A82C
:1035E00000F005F922680E4B9A4216D10023009391
:1035F0000C4B0D481A6B42F001021A631B6B03F06F
:1036000001030093009B4FF48073019312230293F4
:1036100001A901230593FDF765FC06B010BD00BFAD
:1036200000000140003802400000024010B504468E
:1036300088B01422002103A800F0D9F82268154BA5
:103640009A4224D103F5FA33002101911A6C1248F1
:1036500042F400321A641A6C02F400320192019AA8
:1036600002911A6B42F001021A631B6B03F0010313
:103670000293029B0C2303930223049301230593DB
:103680000323069303A907230793FDF72BFC08B038
:1036900010BD00BF00440040000002407047FEE73C
:1036A000FEE7FEE7FEE7704770477047FDF798BBFF
:1036B00008B50A4B1968024609B909491960186822
:1036C000694602448A4206D900F05CF80C23036084
:1036D0004FF0FF3008BD1A6008BD00BF5801002040
:1036E000A80200200F49D1F8883043F47003C1F8D4
:1036F00088300D4B1A68002042F001021A60986071
:103700001A6822F0847222F480321A60074A5A60E2
:103710001A6822F480221A60D8604FF000638B6030
:10372000704700BF00ED00E0003802401030002478
:10373000DFF834D0002103E00C4B5B5843500431D8
:103740000B480C4B42189A42F6D30B4A02E0002376
:1037500042F8043B094B9A42F9D3FFF7C3FF00F04C
:1037600017F8FFF709FC704700800120E8420008C5
:10377000000000207800002078000020A80200202F
:10378000FEE70000014B1868704700BF14000020DE
:1037900070B50D4E0D4CA41BA4100025A54209D1F7
:1037A0000B4E0C4C00F03EFCA41BA4100025A542BF
:1037B00005D170BD56F8253098470135EEE756F82B
:1037C000253098470135F2E7E0420008E042000862
:1037D000E0420008E442000810B5431E0A4491424A
:1037E00000D110BD11F8014B03F8014FF7E7024477
:1037F0000346934200D1704703F8011BF9E700002C
:103800000EB400B59CB04FF402711DABADF81410AE
:10381000029006906FF000410A48049107914FF61C
:10382000FF7153F8042BADF816100068019302A93C
:1038300000F066F8029B00221A701CB05DF804EBE1
:1038400003B07047140000202DE9F0478E689E42B7
:1038500082460C469146984635D88A8912F4906F74
:1038600031D0256809696F1A6569022305EB4505A2
:1038700095FBF3F508F101033B449D4238BF1D461B
:10388000530531D5294600F02DFB064650B90C23CF
:10389000CAF80030A38943F04003A3814FF0FF3002
:1038A000BDE8F0873A462169FFF796FFA38923F424
:1038B000906343F08003A381266165613E44ED1B64
:1038C0002660A5604646464528BF464632464946DC
:1038D000206800F09FFAA3689B1BA36023681E4426
:1038E00026600020BDE8F0872A4600F059FB064616
:1038F0000028E1D12169504600F0A6FAC7E7000090
:103900002DE9F04F9DB0804603938B891C060D4630
:1039100016460FD50B696BB9402100F0E3FA286019
:10392000286128B90C23C8F800304FF0FF30C5E0FB
:1039300040236B610023099320238DF82930302325
:103940008DF82A304FF0010B37463C4614F8013B06
:10395000002B3CD1B7EB060A0BD053463246294622
:103960004046FFF771FF013000F0A380099B5344EC
:1039700009933B78002B00F09C8000234FF0FF322E
:1039800004930793059206938DF853301A930522FA
:1039900021785048FCF724FC671C049BD8B9D90651
:1039A00044BF20228DF853201A0744BF2B228DF8E4
:1039B000532022782A2A16D0079A00210A20274667
:1039C00001343B78303B092B51D9C9B111E0252B8B
:1039D000C0D02746B9E73F4A801A0BFA00F01843D7
:1039E00004903C46D3E7039A111D12680391002A04
:1039F00001DB079204E0524243F002030792049372
:103A00003B782E2B0ED17B782A2B07F1010132D186
:103A1000039B1A1D1B680392002BB8BF4FF0FF33A6
:103A2000023705932C4C397803222046FCF7D8FB4B
:103A300038B14023001B03FA00F0049B03430493B6
:103A40000137397825488DF8281006227E1CFCF7AE
:103A5000C7FB002835D0224BFBB9039B073323F06B
:103A6000070308330393099B4B4409936CE700FB5E
:103A700002320121A3E70023059318460A240F46CA
:103A800001313A78303A092A03D9002BCAD005907F
:103A9000C8E704FB00200123F1E703AB00932A46AB
:103AA000104B04A94046AFF30080B0F1FF3F8146C0
:103AB000D9D1AB895B063FF538AF09981DB0BDE899
:103AC000F08F03AB00932A46064B04A9404600F052
:103AD00081F8EAE7A5420008AB420008AF420008BF
:103AE00000000000493800082DE9F04791461F46C4
:103AF0008A680B69DDF820809342B8BF1346C9F885
:103B0000003091F8432006460C4612B10133C9F843
:103B100000302368990642BFD9F800300233C9F853
:103B20000030256815F0060507D104F1190AE3688D
:103B3000D9F800209B1A9D4229DB94F84330226873
:103B4000003318BF012392062ED404F143023946F4
:103B50003046C047013021D02368E568D9F80020FD
:103B600003F00603042B08BFAD1AA36822690CBF3B
:103B700025EAE57500259342C4BF9B1AED184FF066
:103B800000091A344D451BD10020BDE8F087012300
:103B9000524639463046C047013003D14FF0FF301E
:103BA000BDE8F0870135C2E7E1185A1C302081F8E2
:103BB0004300224494F8451082F843100233C4E7CE
:103BC0000123224639463046C0470130E6D009F18C
:103BD0000109D7E72DE9F04317460A7E85B06E2A22
:103BE000984606460C460C9B01F1430E00F0BC8043
:103BF0001AD8632A2ED00AD8002A00F0C880582A82
:103C000000F08A8004F1420584F842202AE0642A08
:103C100001D0692AF6D121681A6811F0800F23D0EB
:103C2000111D1960136827E0732A00F0B48008D8CA
:103C30006F2A2AD0702AE5D10A6842F020020A6071
:103C400003E0752A21D0782ADCD1782284F8452037
:103C50006E4964E01A6801F14205111D196013688C
:103C600084F842300123A3E011F0400F02F1040177
:103C70001960D7D0B2F90030002B03DA2D225B4255
:103C800084F8432062490A2217E02068196810F07E
:103C9000800F03D0081D18600B6806E010F0400F7D
:103CA00001F104001860F7D00B8859496F2A14BF3E
:103CB0000A220822002084F843006568A560002DD0
:103CC000C0F29C80206820F004002060002B3FD1CF
:103CD000002D40F095807546082A0BD12368DA073D
:103CE00008D5236962689A42DEBF302305F8013C9B
:103CF00005F1FF35AEEB05032361CDF800803B46AF
:103D000003AA21463046FFF7EFFE013055D14FF0B0
:103D1000FF3005B0BDE8F08381F845203C492268BA
:103D2000186812F0800F00F104051D6001D00368CF
:103D300002E05506FBD50388D00744BF42F02002BD
:103D400022601BB9226822F0200222601022B1E713
:103D50007546B3FBF2F002FB1033CB5C05F8013D76
:103D600003460028F5D1B7E708681A68496910F0DA
:103D7000800F04D0101D18601368196007E010F060
:103D8000400F02F1040018601368F6D01980002378
:103D900023617546B1E71A68111D196015686268DC
:103DA00000212846FCF71CFA08B1401B60606368DC
:103DB0002361002384F843309FE723692A4639466C
:103DC0003046C0470130A2D023689B0707D50025A5
:103DD00004F11909E368039A9B1A9D4205DBE06828
:103DE000039B9842B8BF184693E701234A463946D9
:103DF0003046C04701308AD00135EBE7002BA7D110
:103E00000B7884F8423004F1420565E7C7420008A8
:103E1000B6420008884210B501EB020303D8421EE7
:103E200099420CD110BD9842F9D28118D21AD342CE
:103E300000D110BD13F8014D01F8014DF7E711F85D
:103E4000014B02F8014FEBE738B50546002945D094
:103E500051F8043C0C1F002BB8BFE41800F0D6F852
:103E60001F4A1368104633B9636014602846BDE8E2
:103E7000384000F0CCB8A3420CD9216862189342B4
:103E800004BF1A685B68636004BF52182260046054
:103E9000ECE713465A680AB1A242FAD919685818D1
:103EA000A0420BD120680144581882421960DDD12C
:103EB000106852685A6001441960D7E702D90C2390
:103EC0002B60D3E7206821188A4204BF116852682A
:103ED000626004BF091821605C60C7E738BD00BF9D
:103EE0005C01002070B5CD1C25F0030508350C2DB4
:103EF00038BF0C25002D064601DBA94203D90C234F
:103F00003360002070BD00F081F8234A1468214618
:103F100091B9224C23681BB9304600F067F8206045
:103F20002946304600F062F8431C26D10C2333604A
:103F3000304600F06CF8E4E70B685B1B1AD40B2BDF
:103F40000FD90B60CD50CC18304600F060F804F16A
:103F50000B00231D20F00700C31A1BD05A42E25069
:103F600070BD8C420DBF63684B686360136018BFFF
:103F70000C46E9E70C464968CAE7C41C24F0030470
:103F8000A04205D0211A304600F030F80130CDD0E3
:103F90002560D9E770BD00BF5C01002060010020F2
:103FA000F8B5074614460E4621B91146BDE8F8405B
:103FB000FFF798BF22B9FFF747FF25462846F8BD0F
:103FC00000F026F884420FD921463846FFF78AFFD1
:103FD00005460028F2D031462246FFF7FDFB314668
:103FE0003846FFF731FFE9E73546E7E738B5064CD5
:103FF0000023054608462360FFF75AFB431C02D105
:10400000236803B12B6038BDA402002070477047BD
:1040100051F8040C0028A0F10400BCBF0B58C018D4
:1040200070470000F8B500BFF8BC08BC9E4670475A
:0C403000F8B500BFF8BC08BC9E46704705
:10403C0074B87E3FC6F5D6BB5EBE54BB499C3A3BBA
:10404C00D6849B3BB672443B7F650C3A2A39A73B1E
:10405C00E05E003B1F39883AC6F5D63BA42A7E3F6A
:10406C00627EF2BC1891AC3B132A783C3900AC3B15
:10407C004ECE543CE8C8E33B1E0E393CAF8DA13B01
:10408C005EBE54BB627EF23C50247E3F5EAEEF3C83
:10409C009948063DC239DE3C710485BCF6AF233D20
:1040AC008894723A0ED8343B499C3ABB1891AC3B7D
:1040BC005EAEEFBCE3E77A3F4275EFBDC2ADB33BFA
:1040CC00F19B0CBEBD67093C0DF2C4BC8DFD1BBC45
:1040DC00D6849B3B132A78BC9948063D4275EF3D2C
:1040EC001E840D3EEAB340BF96801D3FEC89B5BDE2
:1040FC000BFA003D1AAC723CB67244BB3900AC3BB7
:10410C00C239DEBCC2ADB33BEAB3403F28CFAABE36
:10411C007B680FBFA7BD373C6404F4BC071102BC1D
:10412C007F650C3A4ECE54BC710485BCF19B0C3EA1
:10413C0096801D3F7B680F3FB29CFF3EDFBE28BEC2
:10414C0024C6BCBCEF3018BC2A39A7BBE8C8E33B7B
:10415C00F6AF23BDBD67093CEC89B53DA7BD373C27
:10416C00DFBE283EDA7E753F5FB3C4BDE15A11BD98
:10417C00E05E003B1E0E39BC8894723A0DF2C43CD2
:10418C000BFA003D6404F43C24C6BCBC5FB3C43DD4
:10419C004BF5453FAE891C3F1F3988BAAF8DA13B0B
:1041AC000ED834BB8DFD1BBC1AAC72BC071102BC03
:1041BC00EF30183CE15A11BDAE891CBF82234A3F37
:1041CC006937F2BE323E7C3E616F32BE4F5AF8BD4B
:1041DC005B605F3EC5C802BE2F50523D81245CBE61
:1041EC0090A0D83D98FB64BD039B4EBC7028D7BBF8
:1041FC00683398BBACD6533B3D89BE3B5B1C5F3BE5
:10420C00F365B33AEBC6BB3B5CC7383B764FC33A5E
:10421C00A5F61ABF2EAC9BBEAF0BA7BE4F2242BC5D
:10422C00E0BD63BDEB712F3EA1F5C83EC3672B3ECD
:10423C006CB3893EE338703C38A23FBF1D1CAC3ECA
:10424C0061A572BE0C9494BD0CC89EBDFDDA0EBF68
:10425C00C68B453FD637D03E419CF73E6AC232BF33
:10426C004C5147492D436F6E74726F6C6C657200C4
:10427C005265663A256420543A25642E2564202024
:10428C000000000000000000000102030406070803
:10429C00090000000001020304232D302B200068CC
:1042AC006C4C006566674546470030313233343517
:1042BC003637383941424344454600303132333485
:0C42CC003536373839616263646566007E
:0842D800ACC7FF7F01000000EC
:0442E000C50100080C
:0442E400A10100082C
:1042E80001000000100000000F3801000A00000063
:1042F8000024F40018000020000000000000000066
:1043080000000000000000000000000000000000A5
:104318000000000000000000000000000000000095
:104328000000000000000000000000000000000085
:104338000000000000000000000000000000000075
:104348000000000000000000000000000000000065
:0843580000000000000000005D
:040000050800373187
:00000001FF
